:020000040800F2
:1028000020090020D5280008055A0008A552000814
:1028100000000000000000000000000000000000B8
:10282000000000000000000000000000D55A000871
:102830000000000000000000615A0008D75A00089C
:10284000E7280008E7280008E7280008E72800082C
:10285000E728000895310008E7280008D131000872
:102860000000000065310008E7280008E72800089C
:10287000E7280008E728000800000000455C000881
:102880000000000000000000000000000000000048
:10289000C15B000800000000055C0008E728000894
:1028A00000000000E7280008000000000000000011
:1028B00071660008E7280008000000000000000022
:1028C0000348854600F024FB00480047796800086B
:1028D000200900200448804704480047FEE7FEE73F
:1028E000FEE7FEE7FEE7FEE7795B0008C128000887
:1028F00030B50B46014600202022012409E00D4698
:10290000D5409D4205D31D469540491B254695401F
:1029100040191546521E002DF1DC30BDF0B51FB434
:102920000646002082B005464024019100901BE03D
:10293000019922460F46304600F038FA049A059B6A
:10294000801A994110D310461946224600F01EFA0B
:10295000361A8F410197224601200021009F00F086
:1029600015FA38184D4100902046641E0028DFDC1F
:10297000019B00982946324607B0F0BD024670B56B
:102980004A40D30FDB0740002DD04A002AD0010E69
:10299000140E000212020919400A520A8418E501B5
:1029A00004465443000A120A2E045043A419421943
:1029B000200CC543AA18120C0125AD03521C521954
:1029C00012047F39240400D0521C104301D440006B
:1029D000491EC2B20C06C0092018401C4008802ABB
:1029E00002D003E0002070BD40084000002900DA5A
:1029F0000020184370BD70B502464A40D50F400014
:102A00004A00ED0740085208002814D0002A12D0CE
:102A1000C40DD30D41020120C0055202490A520AD9
:102A2000E41A091812187D34914201D3641C00E0A5
:102A30004900002C01DA002070BD0023914201D32F
:102A4000891A0343400849000028F7D100290AD019
:102A5000914202D10121C90705E0914201D2012131
:102A600001E00121C943E005C018401900F0AFF9A9
:102A700070BD0000F0B51FB488B00B990998002410
:102A800048400999C00F490049080991C0070B99AE
:102A90000090490049080B9109990898A6460843F7
:102AA0001CD00B990A98084318D0099801244000BB
:102AB000420D4800410D099824050003000B2043F6
:102AC00009900B980003000B20430B9050181C49F1
:102AD0004018002201901446104605E000200146EF
:102AE0000DB0F0BD032801DA034600E003239C4645
:102AF000C11A0AAE0AE05F0008ADED5B4F00F75B5C
:102B00007D430027AA187C41491C5B1E6145F2DD0C
:102B1000410004AB5A522104120C0A43240C401CFD
:102B20000828DFDB0198029000997046019100901F
:102B3000059B049A0799069800F097F9D0E70000E2
:102B40000DFCFFFFF0B50C465C4085B0E40FE407D8
:102B500003944C0000266408590094464908024634
:102B60000296224321D062460A431ED06200570DCE
:102B70004A000E032303550D012402462C49240567
:102B8000781B1B0B360B40182343264361460090ED
:102B90001C46501AB44103D30098401C009002E038
:102BA000921800985B41002803DA0020014605B026
:102BB000F0BD0020012109050746864611E0644664
:102BC0001D46141BB54106D36546521BB3417446DE
:102BD00007430C43A646CD074008490828439218EE
:102BE0005B4105460D43EAD11046184313D06046B9
:102BF000194650407140084306D06046101AB34150
:102C000006D20122002306E000220123DB0702E0B6
:102C10000122D2435310009874460105381C6141CB
:102C2000029C039D0019694100F012F9BFE7000002
:102C3000FD03000010B500229623114600F0CFF8E6
:102C400010BD00000EB5C217C10F5040CA07401892
:102C50000021054B0293019200910A460B4600F0B9
:102C600004F903B000BD0000330400000EB50549AF
:102C70000291002100910A460B46019100F0F5F8FF
:102C800003B000BD33040000C20F41004002012325
:102C9000400ADB05D207090EC0187F2901DA00209F
:102CA0007047962903DC9623591AC84001E09639EB
:102CB0008840002AF4D040427047000070B5CD0F24
:102CC0004A0009030123090B1B0519430B4BED07B0
:102CD0000024520D9A4201DA002070BD074B3433B4
:102CE0009A4203DC9A1A00F061F802E00449511894
:102CF00088402C43F1D0404270BD0000FF0300002B
:102D0000CDFBFFFFC20FD207400040080BD0C10D22
:102D10000723DB01C91840020905400A1143C20814
:102D200040071143704700200146704710B5002945
:102D300004DB0124E40740428C412146002B04DBE4
:102D40001C460123DB075242A3418B4200D1824241
:102D500010BD0000CB0FDB07490010B54908024643
:102D60000A4307D00A0D07240903E401090B121BCB
:102D7000002A01DC002010BDC900440F0C43C10033
:102D8000E018D205801800F022F810BD10B5202AF6
:102D900004DB0146203A9140002010BD91402023E1
:102DA0009C1A0346E3401943904010BD10B5202AF9
:102DB00004DB0846203AD040002110BD0B46D3402A
:102DC000D0402024A21A91400843194610BD002982
:102DD00004DA401C490001D140084000704770B43B
:102DE0000024050C05D11024000402D1002921D0B3
:102DF0001124050E01D100020834050F01D1000194
:102E0000241D850F01D18000A41C002801DB400097
:102E1000641C002908D020252E1B0D46F540A1403A
:102E200000D001212943084301061B1B000ADB1DBA
:102E300002D5002070BC7047DB05181880180029E7
:102E4000F8DA401C4900F5D170BC400840007047DA
:102E500010B5002B08DA0024401C614192185B4138
:102E60001A4301D14008400010BDF0B51FB482B034
:102E700005460C0003D0084603F0CBFC02E003F04B
:102E8000C8FC20300246009021462846FFF77EFF0E
:102E9000049B059A04460F4618431143084314D077
:102EA000184610431BD0009840210A1A184605996D
:102EB000FFF77CFF05460E46009A05990498FFF738
:102EC00065FF084305D0012004E02046394607B0DD
:102ED000F0BD0020C11705430E432C433743009932
:102EE0000E986305401A7905E40A00220C43FD0A96
:102EF0000A3002D500200146E9E7010510196941B1
:102F00000C9C0D9D00196941FFF7A2FFDFE700004F
:102F1000064C0125064E05E0E36807CC2B430C3C2C
:102F200098471034B442F7D3FFF7CEFCBC6E0008CC
:102F3000DC6E000870B5044600688168490720D53A
:102F4000816810264907002905DA8168890702D4BB
:102F500081683143816001F0A1F905460DE001F07F
:102F60009DF9401B0A2808D9A06D3043A065E06D8B
:102F700001210843E065084670BD2068806840076D
:102F8000EDD4002070BD10B50146806A826D5023DB
:102F90001A420AD1816D01225202114381650168F2
:102FA000CA681205920F05D020E0006D426B0846FA
:102FB000904710BD026A002A18D10A68120715D579
:102FC0008A6853070122002B09DB4B680C24A343BA
:102FD0004B60816D130299431143816506E0816D59
:102FE000202319438165C16D1143C16500F016FAB4
:102FF00010BD10B5806A816D402211438165C16D9D
:1030000004221143C16500F065FA10BD10B5806A55
:1030100000F005FA10BD000038B504460648054921
:103020000068FFF765FC604300E0401E0090002848
:10303000FBD138BD40420F004C000020F8B50446DB
:10304000006881688907890F012925D10168C907AE
:1030500022D08168052211401025012601290FD1B7
:10306000816802221143816021680320086001F019
:1030700015F907460CE001F011F9C01B0A2807D921
:10308000A06D2843A065E06D3043E0650120F8BDE8
:1030900020688068C007EED10020F8BDF8B504466E
:1030A000006881688907890F012902D10168C90771
:1030B00022D18168114A10261140012500290ED124
:1030C0008168294381600120FFF7A6FF01F0E6F83F
:1030D00007460CE001F0E2F8C01B0A2807D9A06DF2
:1030E0003043A065E06D2843E0650120F8BD20680D
:1030F0000068C043C007EDD10020F8BD1700008074
:10310000000901060207090F0A23120F594300059F
:103110008918000F64225043081870477EB5FF22BB
:103120006B461A701A710E4C0022E51DF9350FE03E
:103130006B46865C1B795E4002966B46A65D1B78EB
:103140005E406B461E71029BEE5C6B461E70521C0D
:10315000491EEDD2694608780979000208437EBD10
:10316000E86B000810B5024800F0DEFC10BD00005E
:10317000C804002010B5046863608368102B0368DE
:1031800003D099600068C26010BD9A600068C16099
:1031900010BD000010B5012000F0B4FF0848416ADE
:1031A000084A094B9161D9810168084B19400160B7
:1031B00000214162036801210B430360917110BD3E
:1031C000001401400000002054030020FEFF000016
:1031D00070B50124E403204600F094FF21460D4819
:1031E00001F050F8002814D00122052655033607B7
:1031F0002946304601F04BF8074C6078002808D18A
:1032000001222946304601F042F801206070A0708A
:10321000607170BD00080050000000201FB5002440
:10322000039400F0E5FE084801900220029000940B
:1032300003A9684600F078FE002801D000F0B0FE37
:1032400000F0AEFE1FBD0000007F000810B5084969
:1032500000224A6107494B684C1523434B604B6879
:10326000082423434B60C009C001026010BD000068
:10327000080500200020024010B5214A0021906975
:10328000C305204804D541690223194341619115C2
:1032900093699B0505D54369012423434361630278
:1032A000194393695B0505D54369082423434361AA
:1032B000E301194393691B0505D54369042423439E
:1032C00043616302194393699B0405D54369102444
:1032D000234343616302194393699B0304D5446903
:1032E00020231C43446119439369DB0305D54369DB
:1032F000402423434361A0020143916110BD0000BB
:10330000002002400805002070B5054600F0C6FF09
:103310000646184C0AE0681C08D0002D04D000F0C6
:10332000BDFF801BA84201D9032070BDA069C00762
:10333000F1D1A069800701D50220A061A069C00574
:1033400011D4A06980050ED4A06940050BD4A069F2
:10335000000508D4A069800405D4A069800302D4C4
:10336000A069C00303D5FFF787FF012070BD0020CF
:1033700070BD000000200240012181F310884168E7
:10338000006880F308880847F8B506460D464036C1
:10339000317D01290DD00121317501688A685207FC
:1033A00009D5816D202211438165002030750120EF
:1033B000F8BD0220F8BD174B6A68D80547109A423D
:1033C000154C8A6A2B6812D05B035B0B1A438A6226
:1033D0002968490305D5A1680143A1600A20FFF7C8
:1033E0001BFE2868800312D5A06838430EE05B03FB
:1033F0005B0B9A438A622968490302D5A16881431D
:10340000A1602868800302D5A068B843A0600020AE
:103410003075F8BD0110000000270140704770476B
:1034200070B5040043D0A06D02210843A06520467A
:10343000FFF780FD0026054600283AD0012D32D046
:10344000206841681F4A114041602168D0430860EC
:103450002068816801221207914381602068C16859
:10346000194A1140C16020680169184A1140016180
:1034700020684169C908C90041612068016A144A8D
:103480001140016220688030416BC909C901416364
:1034900020688030416BC909C9014163204600F0B2
:1034A000FDF8E665A66540342675284670BD012006
:1034B00070BD2046FFF7C2FD05460128F3D001206C
:1034C000A065BDE760F7FFFF00023E8302FCFF3FFF
:1034D00000F000F07047000070B5040006D0A06D49
:1034E000264600254036002802D006E0012070BDA7
:1034F000E5653575204600F0E9F8A06DC00603D4F7
:1035000021688868400705D5A06D10210843A06593
:103510003575EBE7A06DFF22013290430222104384
:10352000A06588688207920F5A48012A02D10A686A
:10353000D2072BD1032362689B079A4205D05B42D6
:103540009A4202D05B009A4209D10A69920092081D
:103550000A6121680A6963681A430A610CE00A6912
:10356000920092080A6181680F229204914381605F
:1035700081686268114381602168CA6818239A4390
:10358000CA602168CA68A3681A43CA6081680122B8
:103590005206914381608168228F520611438160F7
:1035A00020688168C90004D4816801221207114390
:1035B00081602068C168384A1140C1602169E068B3
:1035C000022923D000210843216A226B49035200BB
:1035D00011430843616B0843A16989030843E1690A
:1035E000C90308432168CA681043C860A06A01463D
:1035F000FF39C23905D0E16A08432168CA6810431F
:10360000C860606A0121012802D00BE00421DAE7DA
:10361000206A002823D0A06D20221043A065E06D11
:103620000843E065206C012820681FD00169C907A4
:1036300003D0016949084900016120684169C9084E
:10364000C900416120684169E26B11434161E56550
:10365000A06D80088000401CA065002070BD20681F
:10366000C26801231B041A43C260DBE70269FF231F
:103670009B009A43026120680269636CE66C1A43FE
:10368000A36C33431A430261206802690A43026152
:10369000D3E70000002701401902FEFF10B50446E1
:1036A0000068084988420CD10748416B4215914394
:1036B00041630520FC21000700F0B8FC206D00F0FC
:1036C00049F910BD002401400010024070B50546C4
:1036D0000068184986B088422AD11748416B4215C4
:1036E00011434163FC200090032001900026052037
:1036F00069460296000700F011FD1048104C41C4C5
:10370000266080206660A0604000E060800020614C
:1037100020206061C001A0610948083C00F044FB22
:10372000002803D0702107A003F072F82C65A56271
:1037300006B070BD002401400010024008000240A5
:10374000C80400202E2E2F5372632F73746D3332F2
:103750006C3078785F68616C5F6D73702E63000009
:10376000F7B5044600680025806840073DD426462A
:103770004036307D01280AD001273775E0690128DD
:1037800007D02046FFF78AFC050002D02EE0022079
:10379000FEBDA06D16490840FF2101310843A06518
:1037A0000020E0653075216D1248C862216D124815
:1037B0000863216D1148486321681C200860206857
:1037C00041681022114341602068C1683943C160DB
:1037D0002168206D4031029B019A00F069FB20684E
:1037E000816804221143816000E002252846FEBD65
:1037F000FEF1FFFF872F00080D300008F32F0008AF
:10380000F8B5064604464036307D012807D001272A
:1038100037752046FFF78EFB050002D024E002201A
:10382000F8BD2068C16849084900C160206D00F0FA
:103830001FF8050003D0A06D40210843A065206853
:103840004168102291434160002D204602D0FFF7CD
:10385000F5FB09E0FFF7F2FB050005D1A06DFF21A4
:10386000013188433843A065002030752846F8BDF3
:10387000F8B504460068016849084900016000F095
:103880000DFD00272546064620350EE000F006FD1A
:10389000811B7D20C000814207D9E06B20210843B5
:1038A000E0632F7103206871F8BD20680068C007CD
:1038B000ECD12F71012068710020F8BD70B5002493
:1038C000024620325179022903D00421C163012428
:1038D0003CE001680B680E25AB430B6001680B6888
:1038E0005B085B000B601A4B0168994201D1012112
:1038F00021E0174B1433994201D110211BE0144BE6
:103900002833994201D1891515E0114B3C33994276
:1039100001D189140FE00E4B5033994202D101219D
:10392000090408E00A4B6433994202D101210905D8
:1039300001E001210906064B083B59600121517144
:1039400000211171816B002900D08847204670BD8D
:1039500008000240F0B5002821D0014620318C46F5
:10396000497902291BD001680A68520852000A608E
:10397000026800211160026851600268916002686B
:10398000D160684C674D674E664F664A01681434D3
:1039900028353C365037914203D101231DE00120E8
:1039A000F0BDA14201D1102317E0A94202D1FF23AB
:1039B000013312E0B14202D101231B030DE0B942F1
:1039C00002D101231B0408E0564B6433994202D113
:1039D00001231B0501E001231B06524908394B60F6
:1039E0000168914201D102231BE0A14201D12023B1
:1039F00017E0A94202D101235B0212E0B14202D1D9
:103A000001235B030DE0B94202D101235B0408E00E
:103A1000444B6433994202D101235B0501E0012349
:103A20005B06404908394B600168914201D1082387
:103A30001BE0A14201D1802317E0A94202D101235A
:103A4000DB0212E0B14202D10123DB030DE0B942F7
:103A500002D10123DB0408E0324B6433994202D1E6
:103A60000123DB0501E00123DB062E4908394B6009
:103A70000168914201D104231BE0A14201D14023FE
:103A800017E0A94202D101239B0212E0B14202D108
:103A900001239B030DE0B94202D101239B0408E0FE
:103AA000204B6433994202D101239B0501E001239D
:103AB0009B061C4908394B601A49036878319342C8
:103AC00003D18A6A1209120124E0A34202D18A6A50
:103AD000F0231EE0AB4203D18A6A0F231B0218E0D9
:103AE000B34203D18A6A0F231B0312E0BB4203D106
:103AF0008A6A0F231B040CE00A4A6432934203D102
:103B00008A6A0F231B0504E08B4204D18A6A0F23C3
:103B10001B069A438A620021C163604641710171AC
:103B20000846F0BD08000240F8B504469D4801680B
:103B30009C4A9C4E9B4F0832206813041C36303739
:103B4000904201D108221EE0B04201D180221AE049
:103B5000B84202D10122D20215E0924A4432904288
:103B600002D10122D2030EE08E4A5832904201D196
:103B70001A4608E08B4A6C32904202D10122D205EB
:103B800001E00122D20625461140203500293BD014
:103B90000168090738D5016808229143016081490D
:103BA00020680831884201D108201EE0B04201D1CE
:103BB00080201AE0B84202D10120C00215E0794904
:103BC0004431884202D10120C0030EE075495831CA
:103BD000884201D1184608E072496C31884202D10E
:103BE0000120C00501E00120C0066E494860E06B7D
:103BF00001210843E0630420687100202871616B93
:103C0000002901D02046884766480168654A206837
:103C100008321315904201D104221EE0B04201D1B6
:103C200040221AE0B84201D11A4616E05D4A4432F9
:103C3000904202D1012292030FE05A4A5832904238
:103C400002D10122920408E0564A6C32904202D11D
:103C50000122920501E001229206114238D001684A
:103C6000490735D50168890603D4026804218A43CF
:103C700002604C4920680831884201D104201EE0CE
:103C8000B04201D140201AE0B84201D1184616E0F6
:103C900044494431884202D1012080030FE0414968
:103CA0005831884202D10120800408E03D496C313E
:103CB000884202D10120800501E0012080063949B7
:103CC000486005206871216B002901D02046884793
:103CD00034480168334A206808325315904201D1B4
:103CE00002221EE0B04201D120221AE0B84201D1E6
:103CF0001A4616E02B4A4432904202D10122520366
:103D00000FE0284A5832904202D10122520408E0C2
:103D1000244A6C32904202D10122520501E0012274
:103D2000520611423CD00168890739D501688906DD
:103D300003D401680222914301601A4920680831C6
:103D4000884201D102201EE0B04201D120201AE0B9
:103D5000B84201D1184616E012494431884202D1D6
:103D6000012040030FE00F495831884202D1012061
:103D7000400408E00B496C31884202D10120400523
:103D800001E00120400607494860E06BE063012044
:103D9000687100202871E16A002901D02046884717
:103DA000F8BD00000000024070B5002805D00346B1
:103DB00020335979002902D003E0012070BD002191
:103DC000197102215971046822683749C5680A408F
:103DD0008168466929430569354329438569294333
:103DE000C5692943056A2943114321602F492F4C96
:103DF00002687831A24206D18A6A120912018A62E7
:103E00008A6A406849E0294C1434A24207D18A6A80
:103E1000F024A2438A628A6A406800013DE0234C94
:103E20002834A24208D18A6A0F242402A2438A625B
:103E30008A6A4068000230E01C4C3C34A24208D13F
:103E40008A6A0F242403A2438A628A6A40680003B4
:103E500023E0164C5034A24208D18A6A0F2424046D
:103E6000A2438A628A6A8088000416E00F4C643498
:103E7000A24208D18A6A0F242405A2438A628A6A70
:103E80008088000509E08A4209D18A6A0F24240645
:103E9000A2438A628A6A0079000602438A6201208C
:103EA0005871002070BD00000FC0FFFF08000240E5
:103EB000F8B5044620300579012D1ED00125057185
:103EC0000226467120680768AF4307602046FFF767
:103ED00051F92068016831430160206801680422BB
:103EE00011430160206801680822114301602068C5
:103EF0000168294301600020F8BD0220F8BD0000E0
:103F000010B500210748C9438162002282624162E4
:103F1000426201620262C161C26100F02BFA0020BC
:103F200010BD000000100240F8B51A4E0546307C66
:103F30000F46012807D0012030741748FFF7E4F935
:103F4000010002D021E00220F8BD0020C04338600B
:103F50006C6814E02046FFF779F90F48FFF7D4F9B1
:103F600001460E48426808239A434260426843155E
:103F70009A434260002901D03C6006E08034A86882
:103F80006A68C0018018A042E4D800203074084656
:103F9000F8BD00000805002050C3000000200240CA
:103FA000034841680222114341600020704700002D
:103FB00000200240F8B50C4C1646207C0F46012824
:103FC00008D0012020740948FFF79EF90025002839
:103FD00002D006E00220F8BD65613E600348FFF7AD
:103FE00093F92574F8BD00000805002050C30000B7
:103FF0000948416889070CD54168C90703D00749BA
:10400000C1600749C160074901610749016100209A
:10401000704701207047000000200240EFCDAB89BF
:1040200005040302BFAE9D8C16151413F0B50023D2
:1040300058E001249C4022460A4052D006685F00A6
:104040000325BD402E43AC460660DD08AD002D18AB
:104050002E6AAE465D07EF0E0F25BD40AE43754696
:104060002E6286686546AE4386604568A543456016
:10407000C4686546AC43C4609D081C4CAD002D1956
:10408000AF689C07260F0F24B440A4463C40052788
:104090003F07B84201D100270FE0154FB84201D1C8
:1040A00001270AE0134FB84201D1022705E0124F61
:1040B000B84201D1052700E00627B740A74210D13A
:1040C000AE686446A643AE600C4C256895432560F7
:1040D000656895436560A5689543A560E568954367
:1040E000E5605B1C0A46DA40A3D1F0BD0000014048
:1040F0000004005000080050001C00500004014063
:104100007047000010B504494A69024202D0486174
:10411000FFF7F6FF10BD000000040140F8B50023D2
:1041200001249DE027469F403A4070D04D68022D03
:1041300001D0122D14D1DD08AD002D1800952D6A87
:104140005E07AC46F50E0F26AE46AE406546B5435B
:10415000AC460E697546AE4065462E43009D2E6204
:104160004D68012D05D0022D03D0112D01D0122D47
:1041700016D185680326AC465D00AE46AE40654666
:10418000B543AC46CE687546AE4065462E43866064
:1041900046680D79BE43ED06ED0F9D403543456001
:1041A00006685F000325BD40AE46AE430D79B446B8
:1041B000AE07B60FBE4065462E430660C66875461C
:1041C000AE438D68BD403543C5604D68ED0046D5B2
:1041D000264D6E6B26436E639E08254DB6007519FD
:1041E000AC46AD689E07360F0F27B740BD43052785
:1041F0003F07B84201D1002710E01E4FB84201D15D
:1042000001270BE01C4FB84202D1022706E026E04E
:104210001A4FB84201D1052700E00627B7402F43C7
:104220006546AF60164D2E684F689643FF0300D574
:1042300016432E606E684F689643BF0300D5164341
:104240006E60AE684F689643FF0200D51643AE60BD
:10425000EE684F689643BF0200D51643EE605B1CC4
:104260000A681546DD4000D05CE7F8BD001002404A
:10427000000001400004005000080050001C0050E5
:10428000000401400069084000D001207047002A66
:1042900001D0816170478162704700000148006869
:1042A000704700004800002070B504000FD021685E
:1042B0001348086021681348086003CC41602068F7
:1042C000083C21688860FFF7E9FF054608E0012007
:1042D00070BDFFF7E3FF401B302801D9032070BDFC
:1042E0002068C0680028F4D120680269E1688A4229
:1042F00001D0016101E004490160002070BD0000AF
:10430000CCCC000055550000AAAA00000068024964
:104310000160002070470000AAAA0000024801685E
:10432000491C0160704700004800002010B5064895
:104330000168402211430160002000F007F800F0FE
:104340001BF8002010BD00000020024010B50446FC
:1043500007487D21C9000068FEF7CAFA00F002FD97
:1043600000222146501E00F037F8002010BD00004A
:104370004C0000207047000010B50C48416B012232
:1043800011434163816B0204114381630022114692
:10439000501F00F021F800221146901E00F01CF87A
:1043A00000221146501E00F017F810BD0010024008
:1043B000C106C90E0120884001490860704700000D
:1043C00080E100E0C106C90E012088400149086073
:1043D0007047000000E100E010B501F01FFB10BDC8
:1043E000F8B53A49034601240020E403364D374A24
:1043F0004031022B31D0042B49D0082B56D0202B32
:104400000BD10B69096903252D0429406700A6001B
:10441000B94203D199052CE02046F8BDB14203D141
:104420009907FAD52A48F8BDA942FCD11168890339
:10443000F9D5116803200005014001200005091A83
:1044400009D0091A05D0814201D12248F8BD22487D
:10445000F8BD2248F8BD2248F8BDCB680C26334091
:104460000AD0082B0BD0042B0ED00C2BF4D10969E9
:1044700089050029D0DBF8BD00F0CCF9F8BD116842
:104480004907FBD52846F8BD00F0E4F9F8BDCB6834
:104490000326B6023340EFD00127FF02BB42EED025
:1044A0007A109342F0D0B342E1D0F8BDC96803233B
:1044B0001B031940E0D0012464036310A142DED045
:1044C0009942E1D0F8BD00000024F4000010024041
:1044D0008890000020A1070000093D0040420F0025
:1044E00080841E00F8B5044600784F4D800672D5D2
:1044F0004D4E0027403EB06BC00004D4B06BA90500
:104500000843B063012749480168C90511D401680F
:10451000821511430160FFF7C1FE009005E0FFF72F
:10452000BDFE0099401A642837D840480068C0058D
:10453000F5D532680321090560680A4001409142BF
:1045400008D08103890F032904D13168890301D57B
:104550000120F8BD2A69032109040A4022D008403D
:1045600090421FD0207880061CD528692A6988438C
:104570000121C9040A432A612A698A432A61286100
:10458000C0050FD5FFF78AFE009008E0FFF786FE12
:104590000099411A2648814201D90320F8BD2869B3
:1045A0008005F3D561688803800F032805D1326840
:1045B0000005824301400A43326028690322616892
:1045C0001204114008432861002F04D0B16B012070
:1045D00000078143B1632078800705D5E8680C2186
:1045E0008843A1680843E8602078400706D5E8685A
:1045F000032189028843E1680843E86020780007C6
:1046000006D5E86803210903884321690843E86067
:104610002078000606D5E86803218904884361698B
:104620000843E8600020F8BD4010024000700040E0
:1046300088130000F8B5054653480E460068C007C9
:10464000C00FB0420AD250480168490849003143BE
:1046500001600068C007C00FB0426FD128784B4C92
:10466000800705D5E068F0218843A9680843E06029
:104670002878C00752D06868022817D0032818D0BD
:104680002168012818D08905002957DAE1688908CE
:1046900089000143E160FFF701FE696807460229CE
:1046A00012D003291CD0012926D033E021688903C8
:1046B000EAE721688901E7E74907E5E7FFF7EEFD4B
:1046C000C11B3348814223D8E0680007800F0228CD
:1046D000F4D123E0FFF7E2FDC11B2D48814217D83A
:1046E000E0680007800F0328F4D117E0FFF7D6FD3C
:1046F000C11B274881420BD8E0680007800F0128C2
:10470000F4D10BE0FFF7CAFDC11B2148814201D95A
:104710000320F8BDE0680007800FF3D11A48016854
:10472000C907C90FB1420BD9016849084900314393
:1047300001600068C007C00FB04201D00120F8BD81
:104740002878400706D5E068072109028843E96810
:104750000843E0602878000707D5E0680721C90210
:1047600088432969C9000843E06000F073F8E168F4
:10477000084A0906090F515CC84007490860002033
:10478000FFF7E4FD0020F8BD0020024000100240C9
:1047900088130000986E00084C00002008B51548EA
:1047A0000168821511430160C16889088900C160F0
:1047B0000168114A11400160016801221204114090
:1047C000009101689200914301600021C16042683C
:1047D0000A4B1A4005235B03D218426042681F232C
:1047E0001B029A438314D2184260016105490448B0
:1047F000086008BD00100240D4FFF6FEFF1FFF0056
:1048000068FF1F004C00002001480068704700004E
:104810004C000020044805490068C968044A49055D
:10482000490F515CC84070474C0000200010024006
:10483000B16E0008044805490068C968044A890443
:10484000490F515CC84070474C00002000100240E6
:10485000B16E000810B5184AD1680C200840042831
:104860000BD0082810D00C2810D050680004410F3D
:104870000120C003491C884010BD1068C00601D546
:104880000E4810BD0E4810BD0E4810BD88020E4BDC
:10489000000F185C0902D368890F491CDB0301D59E
:1048A000084A05E01268D20601D5044A00E0044A2D
:1048B0005043FEF71DF810BD0010024000093D00F6
:1048C0000024F40000127A00A86E0008F8B504462F
:1048D0000078F24DC0074AD0E8680007800F022830
:1048E00007D0E8680007800F032809D1E868C003F3
:1048F00006D5286880033AD56068002873D036E072
:10490000012062680004824203D1296801432960C2
:1049100011E0052301211B0489049A422A6802D16F
:104920000A432A60F1E782432A602A680240009223
:10493000286888432860606800280CD0FFF7AEFC28
:10494000064604E0FFF7AAFC801B64287ED828688E
:104950008003F7D50BE0FFF7A1FC064604E0FFF764
:104960009DFC801B6428F1D828688003F7D4207848
:10497000800741D5E8681F270007800F3F02012804
:1049800007D0E8680007800F032809D1E868C00352
:1049900006D42868400717D5E068012823D113E022
:1049A000E068002817D02968092291430143296053
:1049B000FFF774FC064604E0FFF770FC801B02283A
:1049C000C4D828684007F7D568682169B843090248
:1049D0000843686010E02868400840002860FFF73E
:1049E0005DFC064605E090E0FFF758FC801B0228BE
:1049F000ACD828684007F7D42078C00676D5E86898
:104A0000A74E0007800F0BD0A06900285DD0286852
:104A1000FF21013108432860FFF740FC074644E0CE
:104A20002868800502D5A06900286ED0206A6968D0
:104A30003140884212D901F015F80028AED16868DB
:104A4000216AB04308436860686800E0BBE0000288
:104A5000217F000A0906084368600FE06968B143D6
:104A6000014369606868217F0002000A0906084363
:104A70006860206A00F0F6FF00288FD1206A410BA1
:104A80000120C003491C8840E96809060A0F8549CE
:104A9000895CC840844908600020FFF757FC25E086
:104AA000FFF7FCFBC01B02288AD828688005F7D5D1
:104AB0006868216AB043084368606868217F000223
:104AC000000A09060843686010E02968FF200130E9
:104AD00081432960FFF7E2FB064604E0FFF7DEFBB7
:104AE000801B02286FD828688005F7D420786F4E85
:104AF000000723D560690028306910D001210843E0
:104B00003061FFF7CBFB074605E0C5E0FFF7C6FBCA
:104B1000C01B022857D830698007F7D50EE040083F
:104B200040003061FFF7BAFB074604E0FFF7B6FB31
:104B3000C01B022847D830698007F7D42078400787
:104B400062D5A86B0027C00005D4A86B0121090716
:104B50000843A863012756480168C90511D40168B4
:104B6000821511430160FFF799FB009005E0FFF704
:104B700095FB0099401A642825D84D480068C00567
:104B8000F5D5FF20A2680130824203D1316901438B
:104B9000316111E001218902002A07D005231B029F
:104BA0009A4203D132690A433261EFE732698243A4
:104BB0003261306988433061A06800280FD0FFF768
:104BC0006DFB009007E060E0FFF768FB0099411A79
:104BD0003848814259D830698005F5D50DE0FFF796
:104BE0005DFB009006E0FFF759FB0099411A314840
:104BF00081424AD830698005F5D4002F04D0A96BD2
:104C0000012000078143A963606A002842D0E96857
:104C10000907890F03293FD0012636060228286894
:104C200005D0B0432860FFF739FB04462FE0B043BE
:104C30002860FFF733FB074604E0FFF72FFBC01B9C
:104C4000022822D828688001F7D4E16AA06AEA68BD
:104C50000843216BFD231B049A4311430843E8607A
:104C6000286830432860FFF719FB044604E0FFF78B
:104C700015FB001B022808D828688001F7D509E039
:104C8000FFF70CFB001B022801D90320F8BD2868A0
:104C90008001F5D40020F8BD0120F8BD00100240CD
:104CA00000E00000986E00084C0000204010024018
:104CB0000070004088130000FFB581B016460F4613
:104CC000040005D025466035687A002803D007E047
:104CD000012005B0F0BD00202872204600F054FAF3
:104CE0002420687220680168490849000160606AF0
:104CF000002802D0204601F06DFA204601F058FB52
:104D00000128E6D020688168012292031143816066
:104D1000206881685200914339438160049871058D
:104D20000004226808431168064B194001431160D2
:104D300020680168012211430160204601F0B0FAA9
:104D4000C7E70000FFFF00FC0422044904280869AB
:104D500002D09043086170471043FBE700E000E099
:104D600070470000094910B5401E884201D9012052
:104D700010BD074C60610321081F00F04FFE0020AA
:104D8000A06107202061002010BD0000FFFFFF0090
:104D900000E000E010B5FFF7E3FF10BD10B5022101
:104DA00004462034617501680A6A064B1A4203D131
:104DB0000A68520852000A6000F020F8002060756E
:104DC000207510BD1111000070B5040005D02546F6
:104DD0002035687D002802D006E0012070BD00204B
:104DE0002875204600F02AF802206875211D2068E9
:104DF00001F0C8F901206875002070BD012201682A
:104E000092070B48914204D1816B490849008163A4
:104E10007047084A914202D1416B042204E0064ADD
:104E20009142F5D1416B20229143416370470000CC
:104E300000100240000801400014014001220168F6
:104E400092070B48914204D1816B01221143816387
:104E50007047084A914202D1416B042204E0064A9D
:104E60009142F5D1416B202211434163704700000C
:104E70000010024000080140001401400168CA68A7
:104E800052085200CA600068016A044A114203D104
:104E900001684908490001600020704711110000B5
:104EA000704770B50446006801690025C943890749
:104EB000002915DBC168C943890711D4E91E0161C6
:104EC00001202075206880698007204602D0FFF706
:104ED000E7FF04E000F078F8204600F076F825754A
:104EE00020680169C943490717D4C168C943490704
:104EF00013D40421C9430161022020752068806910
:104F00008005800F204602D0FFF7CAFF04E000F0C2
:104F10005BF8204600F059F8257520680169C943FF
:104F2000090716D4C168C943090712D40821C94327
:104F30000161042020752068C0698007204602D0E6
:104F4000FFF7AEFF04E000F03FF8204600F03DF828
:104F5000257520680169C943C90617D4C168C943CA
:104F6000C90613D41021C9430161082020752068A7
:104F7000C0698005800F204602D0FFF791FF04E052
:104F800000F022F8204600F020F82575206801691D
:104F9000C943C90708D1C168C943C90704D1891EDB
:104FA0000161204600F012F820680169C9434906F2
:104FB00009D4C168C943490605D44021C9430161E8
:104FC000204600F004F870BD704770477047704786
:104FD000704770B5040019D0242120466030064681
:104FE0004172206801684908490001602068002575
:104FF00005602068456020688560204600F0ACF8B8
:10500000E5667572B5723572002070BD012070BD05
:1050100070470000F8B502680446D06911680607B9
:10502000360F07D1830605D58B0603D5204601F040
:1050300080F9F8BD95682023002E65D0EE07F60FA5
:10504000FF2721370F4037435ED0C70706D0CF0573
:1050500004D501271762E26E3A43E266820708D55B
:10506000EA0706D0276802223A62E26E04273A4332
:10507000E266420708D5EA0706D0256804222A62BC
:10508000E26E02252A43E266020709D50A461A4063
:10509000324305D0236808221A62E36E1343E366A5
:1050A000E26E002AC5D0800604D5880602D52046C7
:1050B00001F03FF9E06E000703D4206880684006E5
:1050C0001CD5204601F026F920688168490611D5D3
:1050D000826840218A438260606E00280AD01D49A0
:1050E0008163606EFEF7EAFB0028A2D0606E816BE0
:1050F0008847F8BD2046FFF78BFFF8BD2046FFF735
:1051000087FF0020E066F8BD2646C7026036002F04
:105110000ADA6D0208D50120000510627372B372BD
:105120002046FFF755FFF8BD050605D50D0603D54A
:10513000204601F039FAF8BD4006FCD54806FAD5FC
:105140002046146840218C431460737200F0A9F863
:10515000F8BD00000163000810B5006807498842E7
:105160000AD10748816B01225204914381630520D3
:1051700004490007FEF75AFF10BD0000004400403C
:105180000010024002060000F0B500680F4985B02B
:10519000884219D10E48816B012252041143816368
:1051A0000C4802240025032604276A46F1C2052084
:1051B00069460007FEF7B2FF60026A46F1C20520A9
:1051C00069460007FEF7AAFF05B0F0BD00440040A5
:1051D00000100240020200007047FFB50646044678
:1051E0006036707A83B00D46202858D1002D0CD03F
:1051F0000598002809D00120A1680003814207D149
:105200002069002804D1E80702D0012007B0F0BDD2
:10521000307A012843D0012030720020E06621203E
:105220007072FFF73BF801902746403705983882A7
:105230000598788218E0788A401E78820698009057
:10524000002280212046019B01F0E1F9002818D1BD
:105250000120A1680003814202D12069002812D0F8
:105260002168287888626D1C788A0028E3D1069826
:105270000090002240212046019B01F0C8F900283F
:1052800008D00320C2E728882168C005C00D8862C5
:10529000AD1CE9E72020707200203072B6E70220D2
:1052A000B4E77047FEE70000F8B500240F4D04E0B6
:1052B0000A21FDF71DFB641CE4B2A842F8D887B2AE
:1052C0000A213846FDF714FB0E460A21FDF710FBB4
:1052D0000D4664213846FDF70BFB000329024018F8
:1052E00031014018001980B2F8BD0000E70300004A
:1052F000F0B59FB0CC4B00200EAEC100CA184032B2
:10530000158C410015AC6552558C19AC6552958CC5
:1053100017AC6552D48C1BAA54528200D218148A3E
:105320007452528A401C1DACC0B262520328E4D3AE
:105330000025BE486E00815B0F0B0905090D8153E6
:105340000EA8805B081AFDF77DFCB84C00222C3CAF
:10535000E1631346A063FDF7E9FC02D20020A063DD
:10536000E063002F0CD0B048E900091880318A882A
:10537000AE4810384280C9880180076817A80BE042
:10538000A948E900091880310A88A84810384280E5
:1053900049880180076815A8805BFDF74BFC0A90DF
:1053A000E16BA06BFDF7D6FC3946FDF7E7FA0A99E9
:1053B000FDF721FBAF0011A9C851FDF7A3FC0022A6
:1053C0009B4BFDF757FBFDF779FC06A9C851A07868
:1053D00000282ED095480C38815B0EA8805B081AF7
:1053E000FDF730FC0022616413462064FDF79EFC4B
:1053F00002D2002020646064607800280CD08A48C3
:10540000E900091880318A88884810384280C988A4
:105410000180076817A83AE08348E900091880313D
:105420000A8882481038428049880180076815A898
:105430002DE07E48801F815B1DA8805B081AFDF768
:1054400001FC0022616413462064FDF76FFC02D268
:10545000002020646064607800280CD07248E90065
:10546000091880318A88714810384280C9880180C3
:1054700007681BA80BE06C48E900091880310A880E
:105480006A481038428049880180076819A8805B03
:10549000FDF7D0FB0646616C206CFDF75BFC3946DE
:1054A000FDF76CFA3146FDF7A6FAAC000BA90851DE
:1054B000FDF728FC00225E4BFDF7DCFAFDF7FEFB52
:1054C0006D1C02A9EDB20851032D00D231E70298FC
:1054D000FFF7EAFE544E9A3630800398FFF7E4FE59
:1054E000B0800498FFF7E0FE30810698FFF7DCFEFD
:1054F00070800798FFF7D8FEF0800898FFF7D4FE79
:105500004A4C70812C3C3546A069623500285DD03C
:1055100030460088002859D01A3E308BFDF7F0FD48
:105520006082308B403E0007000FA072308FFDF785
:10553000E7FDA0820746308F0607360FE672A069A6
:10554000FDF778FBFDF7DEFB02460B4600203949EC
:10555000FDF7F8FAFDF7B2FB80B2208209903846D9
:10556000FDF768FB0746608AFDF764FB3946FDF7E7
:1055700042FAFDF7C7FB109000912F48F100411847
:105580000CC9A17AC900411803C9FDF7DBFA064628
:105590000F460998FDF76AFB32463B46FDF76AFA6B
:1055A000009B109AFDF766FAFDF7D4FBA861FDF7A2
:1055B0006BFB06460998FFF777FE20823046FFF71F
:1055C00073FE294662398881A86902E00020B08113
:1055D000A8611A49FDF70FFA1449134B002210393C
:1055E00011AFAA33A86195000BAC64590C60D400CC
:1055F0000E881E53E4184E8866807D590D600D8814
:10560000A580521C4D88D2B2E580032AEBD30860F6
:1056100008881883488858830449002008804880F7
:1056200088801FB0F0BD0000540300202C00002033
:10563000006AF840D0126341186E00080050C3475A
:105640001CB52D482B4901600021012292070164FD
:10565000426081600722C26301220261C16041622F
:10566000FF23C233026283620263C16241638161CC
:10567000042281634261C161FDF72EFF002800D042
:10568000FEE71E480090C013019069461A48FDF7D6
:105690007BFE002800D0FEE71948009069461648B6
:1056A000FDF772FE002800D0FEE71648009069461C
:1056B0001148FDF769FE002800D0FEE7124800906F
:1056C00069460D48FDF760FE002800D0FEE70F4850
:1056D000009069460848FDF757FE002800D0FEE715
:1056E0000B48009069460448FDF74EFE002800D0A4
:1056F000FEE71CBD0024014050000020040000080B
:105700000800000C100000102000001440000018D9
:105710008000001CF0B52D4887B0C26A04210A43FE
:10572000C262C26A0A400592C16A01242143C16271
:10573000C16A21400591C16A02252943C162C06A3C
:10574000234F28400590002229463846FEF79FFD4A
:10575000032676030520002231460007FEF797FD59
:10576000E00300901B480190694602951A48FEF735
:10577000D5FC1A4801900520009469460294000760
:10578000FEF7CCFC00950025019402956946384649
:105790000395FEF7C3FC05200295694600070096B5
:1057A00003950194FEF7BAFC022200210720FEF7C0
:1057B00013FE0720FEF706FE002211460520FEF725
:1057C0000BFE0520FEF7FEFD07B0F0BD0010024005
:1057D00000040050000011100008005000002110CB
:1057E00070B51348416B04221143416312480021F4
:1057F000FF25F53581600F4CC560104E016150C02A
:105800000838FFF7E1FA002800D0FEE7A662E5625B
:10581000E16801200143E160216801432160032226
:1058200000211420FEF7D8FD142000F0EDF870BD23
:105830000010024000080140F8000020FF7C00003A
:1058400070B51348416B2022114341631248002177
:10585000124A81600F4CC2601F25016130C00838B8
:10586000FFF7B2FA002800D0FEE7A5620C48E0621C
:10587000E16801200143E1602168014321600022C9
:1058800011461620FEF7A8FD162000F0BDF870BDE9
:1058900000100240001401403001002010270000D9
:1058A000E8FD0000F8B505461448816B012211435C
:1058B0008163840412480022124F8260124E90C00D
:1058C000715D001D06C01438FFF77EFA002800D075
:1058D000FEE7A762705DE062E06801210843E060D6
:1058E0002068082108432060012200211420FEF7CF
:1058F00073FD0F2000F088F8F8BD00000010024092
:10590000C0000020FF7C00000C6E000810B50D48A0
:105910000B4901604B21C901416000218160C160D8
:1059200001618161C1610C22016242610B464162E9
:105930000A46FFF7C1F9002800D0FEE710BD0000BD
:10594000004400406801002010B52848007B002872
:105950004BD02748FDF754FF25487030FFF78EFAEB
:105960002348A830FFF78AFA2148E030FFF786FA8B
:105970000F20FEF71DFD1420FEF71AFD1620FEF77E
:1059800017FD1C20FEF714FD0420FEF711FD092071
:10599000FEF70EFD0520FF210007FEF747FBFF2164
:1059A0001448FEF743FBFF211348FEF73FFB104866
:1059B0007030FFF7F3F90E48A830FFF7EFF90C4805
:1059C000E030FFF7EBF90A48FDF72AFD0B48FFF737
:1059D00000FBFEF7E3FEFEF793FA0948016B490866
:1059E00049000163C003FDF7C7FC10BD00000020A3
:1059F0005000002000040050000800506801002002
:105A00000010024070470000C106C90E0120884006
:105A1000014908607047000000E100E08307FF22B1
:105A2000DB0E9A408907090E994000280BDA00071F
:105A3000000F0838830808489B001818C36993436F
:105A40000B43C3617047830804489B001B18186808
:105A5000904308431860704700ED00E000E400E068
:105A60007047000070B517490023CA681206120F6C
:105A700018D18A6B154CD500134A02D51268224002
:105A800009E08E6B01252D072E438E6312688E6B05
:105A90002240AE438E63A24204D10321890388428F
:105AA00000D101230A4801684908490019430160EF
:105AB0000068C007C00F984201D0012070BD0020CF
:105AC00070BD00000010024000700040001800008F
:105AD00000200240704710B5FEF720FCFFF75AF98E
:105AE00010BD000030B5234899B001680322D202EE
:105AF0009143C214891801600A20009001200024FB
:105B00000A940390059080040B9002250001102157
:105B100009950C9004916846FEF7D8FE002800D045
:105B2000FEE70F200D9003200E900F94109401219A
:105B300011940DA8FEF77EFD002800D0FEE712A804
:105B400012951494FEF7CEFC002800D0FEE7FEF775
:105B50005BFE7D21C900FCF7CBFEFFF703F90420B3
:105B6000FFF7F2F800221146501EFEF735FC19B07F
:105B700030BD0000007000400E48016882151143DE
:105B80000160C1680C4A1140C16001680B4A1140B4
:105B9000016081684908490081600168012292041E
:105BA00091430160C168FD2212049143C16000214C
:105BB00001617047001002400C40FF88F6FFF6FEBE
:105BC00010B50E48FFF76DF90D4882780021002AC4
:105BD00007D0C278521CC270C278012A01D98170E4
:105BE000C1704279002A07D00279521C02710279F1
:105BF000022A01D94171017110BD0000F800002096
:105C00000000002010B50A48FFF74BF909490022AF
:105C100009488A61436A094CE3810368084C2340C0
:105C2000036042620368012213430360CA7110BD1E
:105C30003001002000000020001401405403002027
:105C4000FEFF0000FEB5012080070168F94A1140FF
:105C50000160F948FFF725F9F84901200872F84F6B
:105C6000F84E38787188884201D0F72879D1F34C02
:105C7000A17BF348FDF752FA0004000CE082F5D155
:105C8000F04DEF4C7978403D503406296AD004DC61
:105C900003290CD0042904D168E010297ED04529BD
:105CA0007DD038782070803161700120A8E138788B
:105CB000B978F72802D0002927D054E08C46002973
:105CC00051D13E79FA78797936025318761E9B19AC
:105CD0004D2B1ADA2070032060704800A07000205D
:105CE00063461B020EE01E1895196F00D54D403D0E
:105CF000ED5B460036193571D24D403DEF5B3F0AF2
:105D0000F770401C8142EEDC8BE03A79FB787979C0
:105D100012029C4616465B18253E9E190D2E08DB86
:105D20001646203E9E19042E03DB233A9A18022AB7
:105D300019DA2070032060704800A070BA78002043
:105D400013020BE062461E1892195600AF5B420028
:105D500012191771AE5B360AD670401C8142F1DC15
:105D60005FE0F8E165E02070832047E1B878042621
:105D70003D46012802D002282CD056E0E878697907
:105D8000411828790002401E081808284DDAFFF74C
:105D9000AFFA2878207066706A7901E00DE1B2E10F
:105DA0005000A070A74FA97800205A370B02EE7858
:105DB0000DE0191871184900C919FF39FF39023966
:105DC000450009882D192971090AE970401C824291
:105DD000EFDC26E0E8786979411828790002401E56
:105DE00008180F2821DAFFF783FA287820706670E8
:105DF0006A79944F5000A070A97800206A370B028E
:105E0000EE780CE0191871184900CD198E496918FF
:105E1000450009882D192971090AE970401C824240
:105E2000F0DCA078C01CC6B277E1387820708420FE
:105E3000E4E0B978F8780A021346213BC318042B32
:105E40003B781CD2237006236370A170E07039790F
:105E500021717B790902C91810186371062680B276
:105E600089B20091222806D1082901D90821009180
:105E7000724A0121117040000099295240E1F72B2C
:105E80004CD11746083FC719062F22D26A8812053F
:105E9000120D2A82AA881205120D6A82EA8812055A
:105EA000120DAA822A891205120DEA826A89120548
:105EB000120D2A83AA891205120D6A832370062304
:105EC00063705F4AA170E070107920715079607141
:105ED00015E1303A5A4F82181D2A19D2FFF708FAF5
:105EE0003846077941793A02C07852184300EA529D
:105EF0004C2802D1514A128A3287514A13782370B2
:105F0000062363709278A270E07027716171F6E0E9
:105F1000002904D0552926D0FF2938D03FE0502849
:105F20003DD13A79502A02D0A02A0DD037E07D79B0
:105F3000502D34D1237006236370A170E07022715C
:105F400065711E4601200BE07D79A02D27D12370BD
:105F500006236370A170E070227165711E460020F7
:105F600036494872D9E0552819D13D79552D16D1B9
:105F70007A79552A13D1237006236370A170E070DB
:105F800025712E49627101201E460873C5E0FF2865
:105F900005D13D79FF2D02D17A79FF2A02D02370F5
:105FA00086202BE0237006236370A170E0702571BA
:105FB00062711E46FDF732F9AFE03A78F72A1BD13D
:105FC000B8780190002817D1F878402809D04228E5
:105FD00007D0442805D0462803D0482801D04A28B5
:105FE0000AD13B799C46002B06D17B79022B03D149
:105FF000134FBF79042F06D02270902060700220CA
:10600000A070032689E0227061700199A170E07090
:1060100061460B4F21716371402817D0442822D06C
:1060200048282DD0422838D0462843D04A284ED080
:1060300059E00000FEFF0000C0000020000000202A
:10604000D80100209403002000FCFFFF69882A8A01
:106050000905090D891A3184A9886A8A0905090D7B
:10606000891A71843FE0E988AA8A0905090D891A0D
:1060700031852989EA8A0905090D891A718532E075
:1060800069892A8B0905090D891A3186A9896A8BC4
:106090000905090D891A718625E069882A8A09058A
:1060A000090D891AB184A9886A8A0905090D891A16
:1060B000F18418E0E988AA8A0905090D891AB185D1
:1060C0002989EA8A0905090D891AF1850BE0698990
:1060D0002A8B0905090D891AB186A9896A8B0905D8
:1060E000090D891AF186FA793B7A1202D21840001A
:1060F0002A527A7AB97A120251184019418006263A
:1061000000F0FEFA09E0387820706170B978032653
:10611000A170F72801D11948417231461848FCF79F
:10612000FDFF164DA119E882A055000A48701449D8
:1061300064230846B21CC038FFF74FF828780028BF
:1061400009D0002028700098C0B200F0B7FA00987B
:10615000C0B2FFF7A7FB094900208873014602225D
:106160001C20FEF739F91C20FEF72CF90448C03832
:1061700000680168202211430160FEBD000000207C
:106180002802002070B5026801239B070F4C104DB8
:10619000984203D0A04201D0A84203D17026B24356
:1061A0004E683243984203D0A04201D0A84204D1A5
:1061B00003231B029A43CB681A4302608A68C262B7
:1061C000096881620121416170BD00000008014041
:1061D0000014014010B5818CC90707D001684A68D6
:1061E00001235B049A43836A1A434A60818C8907BE
:1061F00007D501684A6801231B049A43C36A1A43FE
:106200004A60818C490707D501684A6801239B04CD
:106210009A43036B1A434A60818C090707D50168CA
:106220004A680123DB039A43436B1A434A60818C1B
:10623000C90607D50268916801231B039943836B44
:1062400019439160818C890607D501688A6801230A
:106250005B039A43C36B1A438A60818C490612D54B
:1062600003685A6801210905046C8A4322435A6075
:10627000026C8A4207D10268516803235B05994387
:10628000436C19435160818C090607D501684A683F
:106290000123DB04806C9A4302434A6010BD000076
:1062A000F8B500260446C666FDF7F8FF05462068E7
:1062B0000068124F000709D501212B46002249052D
:1062C0002046009700F0A3F900280DD1206800684F
:1062D00040070BD501212B46002289052046009757
:1062E00000F095F9002801D00320F8BD202060348B
:1062F0006072A07226720020F8BD0000FFFFFF014F
:1063000010B5806A0022014640314A834A82FEF776
:106310007FFE10BD01680A68FF2321339A430A609B
:1063200001688A68520852008A60202160308172B8
:10633000704770B50246403201466031938B8D7ACA
:106340000C460168222D05D0886908221043886117
:10635000022070BD496A01268568360389B2B542BC
:1063600002D10569002D0BD01940436D5D1C4565B8
:106370001970518B491E0904090C518307D015E08F
:10638000456D19402980416D891C4165F1E701681F
:106390000A68FF2321339A430A6001688A68520819
:1063A00052008A602021A172FEF716FF002070BD06
:1063B000FEB50446016880682269E369104362699A
:1063C000102700261A4310430A6835466D4B1A40C1
:1063D00002430A6021684868032212039043E2687E
:1063E00010434860684A2168A069914201D0226A3E
:1063F00010438A680B231B029A4302438A60634A54
:106400002068634990420AD1C8680C2108402BD00B
:1064100004282DD0082829D00C2810D10EE05A4A83
:1064200090420CD1C9680320800201401CD0101595
:10643000091A1DD0091A19D0814200D1082702205B
:10644000FDF7CEFF0190504B514922684039D813D7
:1064500000929A4235D1002F0CD0022F0DD0042F7C
:1064600012D0082F1CD113E00027E8E70227E6E747
:106470000427E4E7FEF7CEF908E00868C00601D576
:10648000444805E0444803E0FEF7E4F9002873D0EF
:10649000626851005118814202D81103814201D231
:1064A000012569E0010E0602500800233018594109
:1064B000FCF734FA03210902384A411A914259D9AA
:1064C000EEE7E26982422DD13B0000F0B9F90906FE
:1064D000080B24192424241F2400019812E0FEF73D
:1064E000A9F90FE008686168C00602D548082C4A7F
:1064F00001E02C4A48088018FCF7FAF986B20BE054
:10650000FEF7A8F9616840004A08F4E761680122D3
:1065100048081204EFE70125310909013007400F4F
:10652000084327E03B0000F08BF909070A0D061D20
:10653000060606290600B3E7FEF76CF914E0FEF73D
:1065400079F911E008686168C00602D54A08114867
:1065500001E011484A081018FCF7CAF981B2009806
:10656000C16009E0FEF776F961684A088018FCF717
:10657000BFF980B22168C8602846FEBD61684A083C
:10658000E9E70000F369FFEF0048004000440040E5
:106590004010024000093D000024F400FFFC0F0001
:1065A00000127A000048E8016921095C212901D024
:1065B0000220704702464032518A002912D001233E
:1065C00081681B03994202D10169002915D0C16C71
:1065D0004B1CC364006809788162508A401E508257
:1065E0000020704701680A6880239A430A600068A7
:1065F0000168402211430160F2E7C16C0368098819
:10660000C905C90D9962C16C891CC164E5E7FFB574
:1066100081B017460E4604460A9D1DE0681C1BD03B
:10662000002D05D0FDF73AFE0499401AA84213D96F
:1066300020680168FF22A1329143016020688168CF
:10664000490849008160202060346072A0720020F7
:106650002072032005B0F0BD2068C1693046884330
:1066600004D00020B842D9D00020F3E70120F9E798
:1066700010B50E49C869800613D5080502680C4B91
:106680001A400260002242624A6A0B49094B8C7B25
:106690001A558A7B521C8A7301220A7201681143BF
:1066A000016004487038FEF7B5FC10BD004400409E
:1066B000FEFF0000D80100200000002010B50E49A8
:1066C0000C4A0A600D4A800010584860002088601B
:1066D000C86008618861C8610C2208624A6148622A
:1066E0000346024601460448FEF7E6FA002800D0B9
:1066F000FEE710BD0044004068010020E86D00087E
:1067000070B598B000244048169441882546828888
:10671000090489180091418C028C0904891801919F
:10672000C18C828C090489180291418D028D090463
:1067300089180391C18D828D090489180491418EB5
:10674000028E090489180591C18E828E0904891868
:106750000691018F0A04014640310B8BD218079233
:106760004A880B881204D2180892CA888B881204AF
:10677000D21809920246403A138A568A1B049B1982
:106780000A93938AD68A1B049B190B93138B528B03
:106790001B049A180C9202880D92828F408F12046B
:1067A00010180E9048890A89000480180F90C88933
:1067B0008A89000480181090488A0A8A0004801888
:1067C0001190C88A898A000440181290FDF710FCC5
:1067D000139502200D4D159016A9149513A8FDF7D9
:1067E000A3FB002801D0FDF7DBFB6E46A00032586A
:1067F00041190220FDF7DEFB641CA4B2132CF5D373
:10680000FDF7CEFB18B070BD94030020007F000898
:10681000FEE72021020C01D010211046020A01D00F
:1068200010460839020901D01046091F820801D01C
:106830001046891E420801D0881E7047081A70470A
:1068400030B47446641E2578641CAB4200D21D46E9
:10685000635D5B00E31830BC184702E008C8121FF4
:1068600008C1002AFAD170477047002001E001C139
:10687000121F002AFBD1704708B5012080F3108851
:10688000CD49CC488860002080F31088FDF74EFD8C
:10689000FFF728F9FEF73EFFC848016B012739438F
:1068A0000163006B00223840009039460920FDF753
:1068B00093FD0920FDF786FDFFF728F8FEF7C0FEDF
:1068C000FEF78EFFFEF7BCFFBE48BD490160042104
:1068D0004160BD49C1608160FDF7E6FC002800D041
:1068E000FEE7BA4C678427846785278567862786F5
:1068F000E784A784E785A785E786A7867F20C00170
:1069000025464035688028806881288168822882F1
:10691000E880A880E881A881E882A882002021463A
:106920004039088248828882C88208834883F721D8
:1069300061800221A180A6492187298320807D20B2
:1069400040016087FA20A087A24800682646E43606
:106950003060002801D0401C01D1FFF7D1FE9D4AD4
:10696000002081008B181B68401CC0B27350132894
:10697000F7D33068010C6180A0807068010C6184DD
:106980002084B068010CE184A084F068010C61856A
:1069900020853069010CE185A0857069010C618654
:1069A0002086B069010CE186A086F069010C218780
:1069B0002883306A010C69802880706A010CE980A4
:1069C000A880B16A81480A0C403802824182F16A8B
:1069D0000A0C8282C182316B0A0C02834183B08E21
:1069E0002080B06B010CA1876087F06B010C69817E
:1069F0002881306C010CE981A881706C010C6982DE
:106A00002882B06C010CE982A882208F002804D172
:106A1000714820872883FFF773FE022200211C2083
:106A2000FDF7DAFC1C20FEF7EFFF6648B83000687F
:106A30000168202211430160A088C0B2FFF73EFE2A
:106A4000A088C0B2FEF72EFF60495E480622D8310A
:106A50006038FCF785FE61480021817160490A6851
:106A600001231A430A605748FDF750FCFEF76CFFFC
:106A70005A488179002902D1C1790029F3D0002137
:106A80008171C279002A00D08161544F0021F971CF
:106A90004E4E4E4DD8363088403D68807088A88074
:106AA000B088E880F0882881308968817089A88161
:106AB000012202214B48FDF7EAFB7878002813D029
:106AC000A988012000030143A980698801436980E6
:106AD000298901432981E9880143E980A989014382
:106AE000A9816989014369813648FDF70FFC3B4F55
:106AF00000202037354B8200D833D118374D4E88CF
:106B0000410026356E529D5A344B7D522C335E5ACD
:106B10003605360DB54204D92C4D403D52195288E8
:106B20005A52401CC0B20328E4D33888618F88428F
:106B30000BD87888618F884207D8B988608F8142E6
:106B400003D82648407A00280DD0244D68780028C4
:106B500009D10122052051030007FDF798FB012010
:106B60006870A87068713888A18F88421CD27988B3
:106B7000A08F814218D2B888A18F884214D2174DB5
:106B80006878002810D0687900280DD1687A00282C
:106B90000AD101210520002249030007FDF777FBF8
:106BA000002068700120A870002202210D48FDF726
:106BB0006EFB58E70028000800ED00E000100240DE
:106BC00000300040B0000020FF0F000094030020C0
:106BD00001500000007F0008411F0000000000205D
:106BE000001401400004005000C1814001C08041F8
:106BF00001C0804100C1814001C0804100C181408D
:106C000000C1814001C0804101C0804100C181407C
:106C100000C1814001C0804100C1814001C080416C
:106C200001C0804100C1814001C0804100C181405C
:106C300000C1814001C0804100C1814001C080414C
:106C400001C0804100C1814000C1814001C080413C
:106C500001C0804100C1814001C0804100C181402C
:106C600000C1814001C0804101C0804100C181401C
:106C700000C1814001C0804100C1814001C080410C
:106C800001C0804100C1814000C1814001C08041FC
:106C900001C0804100C1814001C0804100C18140EC
:106CA00000C1814001C0804100C1814001C08041DC
:106CB00001C0804100C1814001C0804100C18140CC
:106CC00000C1814001C0804101C0804100C18140BC
:106CD00000C1814001C0804100C1814001C08041AC
:106CE00001C0804100C1814000C0C101C30302C294
:106CF000C60607C705C5C404CC0C0DCD0FCFCE0EFC
:106D00000ACACB0BC90908C8D81819D91BDBDA1A6B
:106D10001EDEDF1FDD1D1CDC14D4D515D71716D6DB
:106D2000D21213D311D1D010F03031F133F3F2324B
:106D300036F6F737F53534F43CFCFD3DFF3F3EFEBB
:106D4000FA3A3BFB39F9F83828E8E929EB2B2AEA2B
:106D5000EE2E2FEF2DEDEC2CE42425E527E7E6269B
:106D600022E2E323E12120E0A06061A163A3A2620B
:106D700066A6A767A56564A46CACAD6DAF6F6EAE7B
:106D8000AA6A6BAB69A9A86878B8B979BB7B7ABAEB
:106D9000BE7E7FBF7DBDBC7CB47475B577B7B6765B
:106DA00072B2B373B17170B05090915193535292CB
:106DB00096565797559594549C5C5D9D5F9F9E5E3B
:106DC0005A9A9B5B99595898884849894B8B8A4AAB
:106DD0004E8E8F4F8D4D4C8C44848545874746861B
:106DE000824243834181804060090000C01200005C
:106DF0008025000040380000004B00000096000095
:106E0000C0DA000000E1000000C201000F08040326
:106E10000202020202000000000000000000F03F39
:106E20000000000000002440000000000000594065
:106E30000000000000408F40000000000088C340B8
:106E400000000000006AF8400000000080842E412D
:106E500000000000D01263410000000084D7974179
:106E60000000000065CDCD41000000205FA002427F
:106E7000000000E876483742000000A2941A6D42F4
:106E8000000040E59C30A2420000901EC4BCD642E7
:106E900000003426F56B0C430000000000000000E9
:106EA0000102030406070809030406080C10182051
:106EB000300000000001020304000000DC6E000846
:106EC00000000020500000005A6800082C6F0008E5
:106ED00050000020D00800006A6800080000000090
:106EE000000001010100000000000000000000009F
:106EF0000000000000000000000000000000000092
:106F00000000000000000000000000000000000081
:106F10000000000000000000000000000000000071
:0C6F2000000000000000000080841E0043
:04000005080028C106
:00000001FF
